{
    "contractName": "Test",
    "abi": [
        {
            "inputs": [
                {
                    "internalType": "string",
                    "name": "_exampleString",
                    "type": "string"
                }
            ],
            "name": "calldataTest",
            "outputs": [
                {
                    "internalType": "string",
                    "name": "",
                    "type": "string"
                }
            ],
            "stateMutability": "pure",
            "type": "function"
        },
        {
            "inputs": [
                {
                    "internalType": "string",
                    "name": "_exampleString",
                    "type": "string"
                }
            ],
            "name": "memoryTest",
            "outputs": [
                {
                    "internalType": "string",
                    "name": "",
                    "type": "string"
                }
            ],
            "stateMutability": "pure",
            "type": "function"
        }
    ],
    "bytecode": "608060405234801561001057600080fd5b50610291806100206000396000f3fe608060405234801561001057600080fd5b50600436106100365760003560e01c80638c5c52551461003b578063a25206d414610064575b600080fd5b61004e6100493660046100d4565b610094565b60405161005b9190610146565b60405180910390f35b61004e6100723660046101aa565b506040805180820190915260078152666578616d706c6560c81b602082015290565b606082828080601f016020809104026020016040519081016040528093929190818152602001838380828437600092019190915250929695505050505050565b600080602083850312156100e757600080fd5b823567ffffffffffffffff808211156100ff57600080fd5b818501915085601f83011261011357600080fd5b81358181111561012257600080fd5b86602082850101111561013457600080fd5b60209290920196919550909350505050565b600060208083528351808285015260005b8181101561017357858101830151858201604001528201610157565b506000604082860101526040601f19601f8301168501019250505092915050565b634e487b7160e01b600052604160045260246000fd5b6000602082840312156101bc57600080fd5b813567ffffffffffffffff808211156101d457600080fd5b818401915084601f8301126101e857600080fd5b8135818111156101fa576101fa610194565b604051601f8201601f19908116603f0116810190838211818310171561022257610222610194565b8160405282815287602084870101111561023b57600080fd5b82602086016020830137600092810160200192909252509594505050505056fea26469706673582212209a927b0024962c14b9e427dca9b92ec0868010d33ebd6cefc15222cedb88e7d364736f6c63430008130033",
    "sourcePath": "/Users/0xcryp/Desktop/solidity_git/calldata.sol",
    "compiler": {
        "name": "solc",
        "version": "0.8.19+commit.7dd6d404"
    },
    "functionHashes": {
        "calldataTest(string)": "8c5c5255",
        "memoryTest(string)": "a25206d4"
    },
    "gasEstimates": {
        "creation": {
            "codeDepositCost": "131400",
            "executionCost": "177",
            "totalCost": "131577"
        },
        "external": {
            "calldataTest(string)": "infinite",
            "memoryTest(string)": "infinite"
        }
    }
}